:040000006F00607CB1
:100004000000000000000000F6040000F8040000F6
:1000140000000000C4070000000000000000000011
:10002400C4070000C4070000000000000000000036
:10003400EE0B0000000000000001000000000000C2
:10004400C4070000C4070000C4070000C407000080
:10005400C4070000C4070000C4070000C407000070
:10006400C4070000C4070000C4070000C407000060
:10007400C4070000C4070000C4070000C407000050
:10008400C4070000C4070000C4070000C407000040
:10009400C4070000C4070000C4070000C407000030
:1000A400C4070000C4070000C4070000C407000020
:1000B400C4070000C4070000C4070000C407000010
:1000C400C4070000C4070000C4070000C407000000
:1000D400C4070000C4070000C4070000C4070000F0
:1000E400C4070000C4070000C4070000C4070000E0
:0C00F400C4070000C4070000C40700009F
:10010000130181F806C216C41AC61EC822CA26CC1C
:100110002ACE2ED032D236D43AD63ED842DA46DC77
:100120004ADECEC0D2C2D6C4DAC6DEC8E2CAE6CC47
:10013000EACEEED0F2D2F6D4FAD6FED8F3220030D0
:1001400096DA9702002083A262F623A02200F3250C
:1001500010342EC003A18181EF10607417030020BA
:100160000323C3F403210300824273901234D65256
:10017000739002309240A2423243C2435244E2445E
:10018000724582551256A2563257C2575258E258FB
:1001900072598649164AA64A364BC64B564CE64C0F
:1001A000764D865D165EA65E365FC65F13018107DB
:1001B0007300203013000000130000001300000043
:1001C00013000000130000001300000013000000E3
:1001D00013000000130000001300000013000000D3
:1001E00013000000130000001300000013000000C3
:1001F00013000000130000001300000013000000B3
:1002000083A28181938202E073900234170100205F
:100210000321C1E9024182403243C2435244E244D5
:10022000724582551256A2563257C2575258E2585A
:1002300072598649164AA64A364BC64B564CE64C6E
:10024000764D865D165EA65E365FC65FD652A1020B
:1002500073900230A24213018107828013000000D4
:100260001300000013000000130000001300000042
:100270001300000013000000130000001300000032
:100280001300000013000000130000001300000022
:100290001300000013000000130000001300000012
:1002A0001300000013000000130000001300000002
:1002B00013000000130000001300000013000000F2
:1002C00013000000130000001300000013000000E2
:1002D00013000000130000001300000013000000D2
:1002E00013000000130000001300000013000000C2
:1002F00013000000130000001300000013000000B2
:10030000F322003093F272FF130380181203B3E25A
:100310006200711523205500130585FA10C12115BF
:10032000232005009302000063870200711523203B
:100330000500FD12D5BF71150CC1828000000000C0
:1003400000000000000000000000000000000000AD
:10035000000000000000000000000000000000009D
:10036000000000000000000000000000000000008D
:10037000000000000000000000000000000000007D
:10038000000000000000000000000000000000006D
:10039000000000000000000000000000000000005D
:1003A000000000000000000000000000000000004D
:1003B000000000000000000000000000000000003D
:1003C000000000000000000000000000000000002D
:1003D000000000000000000000000000000000001D
:1003E0000000000000000000000000000000397163
:1003F00001436EC619A0397141536AC866CA62CCFE
:100400005ECE19A0397101535AD056D252D44ED66D
:100410004AD826DA22DC06DE3301614082824111AD
:100420004AC026C222C406C68282B24D4101024D94
:10043000924C224CB24B4101024B924A224AB249A1
:100440004101024992442244B240410182803D432D
:100450002A876373C3029377F700BDEFADE5937608
:1004600006FF3D8ABA960CC34CC30CC74CC7410764
:10047000E36BD7FE11E28280B306C3408A0697027F
:10048000000096966780A6002307B700A306B70072
:100490002306B700A305B7002305B700A304B700E0
:1004A0002304B700A303B7002303B700A302B700D8
:1004B0002302B700A301B7002301B700A300B700D0
:1004C0002300B700828093F5F50F93968500D58DB4
:1004D00093960501D58D61B793962700970200008A
:1004E00096968682E78086FA9680C1171D8F3E9683
:1004F000E374C3F8A5B701A001A0EFF25FF23714CF
:100500000140130404C0930500022285B1211305A4
:10051000A00FEF10A0322285930500029129130548
:10052000A00FEF10A031C5B7EFF27FEF1305400623
:1005300037140140EF108030130404C0C1452285F8
:10054000212913054006EF10602F2285C1450D219A
:1005500013050019EF10802ED5B7EFF25FEC4111B3
:100560008545214502C202C402C6DD21930720034E
:10057000371401407C82C1473EC64C008D471305AD
:1005800004C03EC4E92C93052003130504C0E926EA
:10059000410145BDEFF2BFE80545FD26592AEF10A0
:1005A0001016716513050520EF109018B70700208D
:1005B00083A507083735000013050527EF10502ED7
:1005C000512CAA853735000013050528EF10502D52
:1005D000B7350000373500009385052913058529B7
:1005E000EF10102C9D3F37080020B7070020B735CB
:1005F000000037050000130808109387871405478B
:1006000081461306C0039385852B13058552EF00A1
:100610003045B7350000370500001388819B93876C
:1006200001A0054781461306C0039385052C1305D9
:10063000A54FEF00F042EF001065373400001305BE
:10064000842CEF103037E5BFB71702409843B70648
:10065000FFF041111367170098C3D8433706020013
:10066000758FD8C39843B706F7FEFD16758F98C3EC
:100670009843B706FCFFFD16758F98C3D843B7069D
:1006800001FFFD16758FD8C337079F0098C702C4B6
:1006900002C69843C166558F98C3B71602400567D6
:1006A0009C42F18F3EC6A24785073EC4B24781E710
:1006B000A247E397E7FEB71702409C431397E70072
:1006C0006357070685473EC632478547631FF704D1
:1006D000B7170240D843B706C1FFFD16D8C3D843A9
:1006E000D8C3D84313670740D8C3D843758FD8C33E
:1006F000D843B7062900558FD8C39843B7060001E1
:10070000558F98C3984393166700E3DD06FED843E0
:10071000B7160240719BD8C3D84313672700D8C3CC
:100720002147DC42B18BE39EE7FE4101828002C695
:1007300061BFB7160240DC42370700201146B18B7B
:10074000130707086385C70021466388C702B717E8
:100750007A00938707201CC3B7170240DC439183BC
:1007600093F6F700B707002093870700B697942306
:100770001C43B3D7D7001CC38280DC42D4424166FD
:10078000C983BD8BF18E890745466393C700C9476E
:1007900081EEB746024083A60680C18A89CEB7168D
:1007A0007A009386062021A8B7160240D4421396F9
:1007B000E600E35606FEB7163D0093860690B38723
:1007C000D70251BF01A0970100209381A10B1721EF
:1007D000002013012103173500001305E5C6970516
:1007E0000020938525821386018263FAC500832247
:1007F000050023A0550011059105E3EAC5FE170584
:1008000000201305258A938541FE6377B5002320D8
:1008100005001105E36DB5FEFD42739002BC8942EF
:1008200073904280B722000093820280739002305E
:1008300097F2FFFF9382427D93E232007390523031
:10084000EFF09FE097020000938202D5739012347C
:1008500073002030B7F7FF1F03A5477082809C45C7
:1008600013F7070113F8F70001C7D8413368E80010
:1008700037270240145B3707000F758F5DEB370792
:10088000002085462300D70A371701406315E5008D
:100890009A2135839AA18E2113F7F50F39C3184198
:1008A0008146854E3D4F930F800293028004214E76
:1008B0003396DE00B3F8C500631116039398260043
:1008C00033131F011343F3FF3377E300B318180109
:1008D00033E7E8006399F70750C98506E39AC6FD38
:1008E00018C11307F00F6375B70454412146854EB4
:1008F0003D4F930F800293028004414EB398CE0087
:1009000033F715016392E80213172600011733131A
:10091000EF001343F3FFB376D3003317E800D98E0B
:100920006397F703232A15010506E319C6FD54C191
:10093000828037170140E310E5F6370700200347B0
:10094000070A31DBB1B7E39A57F810C979B7E39DCD
:1009500057FC23281501C9BFB71701406318F500DC
:10096000B707002083C7070A91C3B5810CC98280ED
:10097000B71701406318F500B707002083C7070ABF
:1009800091C3B5814CC98280B707002023A2A70A72
:100990008280371702405C439146B18B6385D70054
:1009A000A1466382D706B7177A00938707201CC138
:1009B000371602405C423707002013070701918376
:1009C000BD8BBA9794231C41B3D7D7005CC1544266
:1009D000A1829D8ABA969422B3D6D70014C55442F8
:1009E000AD829D8A36971823B3D7E7005CC558427D
:1009F0003983937637001387418036971823B3D70E
:100A0000E7021CC982805C435843C166C983BD8B21
:100A1000758F8907C5466393D700C94701EF3747EC
:100A2000024003270780418B09CF37177A0013074D
:100A3000072021A83717024058439316E700E3D652
:100A400006FE37173D0013070790B387E70285B707
:100A500099C5371702401C4F5D8D08CF8280B717AC
:100A60000240984F1345F5FF798D88CF8280EFF2D1
:100A70001F9B1629F577FD17F58FF621DA25797179
:100A8000D58F1EA95625FD779387379FF58FD621E1
:100A90002A842EC6D58F9625D58FB625D58F5EA5EF
:100AA0005E29C207C18393F7F7CFD98F5EA9680883
:100AB000CD35B747014093870780B245631DF402E7
:100AC000A2576547B387E7029841930640060A0795
:100AD000B3D7E70233D7D702B3F7D702120792078B
:100AE00093872703B3D7D702BD8BD98FC207C183A2
:100AF0001EA44561B9B29257E9B791C55E25096751
:100B0000D98F5EA582805A25F977FD17F98FD5BF59
:100B100093F5F51F4EA182800A216D8D3335A0001B
:100B20008280B7E700E041572387E7402386E7400C
:100B3000B7F700E023A0070023A20700814694C76F
:100B40000147D8C737070020832507081307401F30
:100B5000814633D6E5023D4790CBD4CB98C3828003
:100B6000EFF2FF8B411102C6F32750303EC6B24769
:100B70000D478D8B6384E7028967938707807390A5
:100B8000073037360000373500001306062E930570
:100B9000600B13058530EF10A05001A0B73700207F
:100BA00093870780BD8B9DC3896793870780739068
:100BB000073037360000373500001306062E930540
:100BC000B00B13058530EF10A04D01A0993FB7E79A
:100BD00000E0116723A0E710056723A0E71023A416
:100BE0000180EFF0EFE1014541016FF09F85397120
:100BF00006DE16DC1ADA1ED82AD62ED432D236D029
:100C00003ACE3ECC42CA46C872C676C47AC27EC0CC
:100C10007311013489679387078073900730B7F7A2
:100C200000E023A20700EF00301111C5B7E700E094
:100C3000116723A0E720896793878788739007301F
:100C400073110134F250E2525253C2533255A2553D
:100C5000125682567247E2475248C248324EA24E5E
:100C6000124F824F2161730020308967938707807C
:100C700073900730938781809843050798C38280DB
:100C8000138781801C438DE7EFF26FF989679387A3
:100C900007807390073037360000373500001306A1
:100CA000062E9305301013058530EF10603F01A02C
:100CB000FD171CC391E78967938787887390073076
:100CC0008280930785007D575CC118C55CC51CC92F
:100CD0002320050082802328050082809841FD564C
:100CE00093078500631ED7001C49D843D8C10CC7A1
:100CF0009CC5CCC31C4188C985071CC18280B687AE
:100D0000D4439042E37DC7FECDB7544118451C49FA
:100D100098C654C3D4436393A600D8C398432328EA
:100D200005007D1798C388438280EFF24FEF411191
:100D30002AC6253F3245005DA13713351400410115
:100D40006FF02FF0304115C2EFF26FED58451445AA
:100D5000AA87329758C56364D700184158C52E85B5
:100D6000CC47EF10C0286FF0CFED8280EFF22FEB71
:100D70002A84E53D8344540413094402E204E184D7
:100D800063459002FD57A302F404DD3DF93D834421
:100D9000440413090401E204E18463449002FD5712
:100DA0002302F404F13D6FF0CFE95C50E1DF4A85A6
:100DB000EF00304419C1EF00905FFD14E204E184BC
:100DC000C1B71C48E9DF4A85EF00B04219C1EF0006
:100DD000105EFD14E204E184C9B7EFF24FE4411163
:100DE0001DE18967938707807390073037360000CD
:100DF000373500001306C632930500111305853000
:100E0000EF10002A01A05C5D2EC62A84BDC33841C4
:100E1000B3B7E702B9EF913D3040585C1440232C42
:100E20000402B307E602B24554C03387F600918F3F
:100E3000B6975CC4FD572302F40418C4A302F4045B
:100E400095E11C4899CB13050401EF00903A11C5B8
:100E5000B7E700E0116723A0E7201D3505454101F4
:100E60006FF02FDE13050401A93D13054402913DE7
:100E7000EDB7896793870780739007303736000096
:100E8000373500001306C63293055014130585301C
:100E9000EF10002101A0EFF28FD801119DE28967C8
:100EA000938707807390073037360000373500008E
:100EB0001306C6329305901513058530EF10401EBA
:100EC00001A019C105C685E58967938707807390DE
:100ED000073037360000373500001306C632930559
:100EE000201813058530EF10A01B01A0F1FD93071A
:100EF00080043ECE72476304F702896793870780B8
:100F00007390073037360000373500001306C632BD
:100F10009305B01613058530EF10801801A0F24735
:100F200091E1368690C2C8DEACC23685854536C6AC
:100F30006D35B246056136856FF0AFD0EFF2AFCBBD
:100F4000011132C61DE189679387078073900730CE
:100F500037360000373500001306C63293051055AA
:100F600013058530EF10C01301A02A84AE898DE5EA
:100F70003C419DC38967938707807390073037365C
:100F80000000373500001306C6329305505513058F
:100F90008530EF10E01001A0EF00304215E5B247B8
:100FA000014985C789679387078073900730373673
:100FB0000000373500001306C6329305A05513050F
:100FC0008530EF10E00D01A001497D5A930A4402DB
:100FD00037EB00E0916B9DA0B24781E755310145A9
:100FE00061A0631509002808EF00D02E5139052BA8
:100FF000AD3983474404E207E18763944701230244
:10100000040483475404E207E18763944701A30281
:101010000404BD316C002808EF00302D29ED228535
:10102000293331C5B2455685EF00D01022853D3BAE
:10103000EF00E06A19E123207B2105493D31045C82
:10104000C1DCCE852285FD14F53904DC1C4899CB22
:1010500013050401EF00F01911C5B7E700E01167AF
:1010600023A0E7203139054505616FF04FBC22858B
:10107000F539B525D9B72285D5399525228575311C
:101080004DDDB1BF15E5EFF28FB989679387078012
:10109000739007303736000085653735000013063A
:1010A000C632938585AC13058530EF00707F01A0B3
:1010B0008DCD938601AF81470147138601AF21484B
:1010C00083A846006398A80093173700B2978CC393
:1010D000C8C321A891E783A8060063930800B687D8
:1010E0000507A106E31E07FDFDF38280EFF22FB393
:1010F00041112A842EC632C48D3E834744047D5755
:101100002246E207E187B2456394E7002302040424
:10111000834754047D57E207E1876394E700A30205
:10112000040432C62EC4A93E1C5CA245324689E79F
:1011300013054402EF00900422850D3941016FF040
:101140004FB0938701D11CC1938701B39CC1930712
:10115000C0031EA28280938781D51CC1938701C2E0
:101160009CC19307C0031EA28280EFF2AFA937098A
:1011700000201384C1F1B70900209304890B9C401F
:10118000EDDFE5345C44C847110541361387490B50
:101190001C43FD171CC39C40FD179CC0D534F1BFF8
:1011A000370700201307C70A1C439443B7070020E2
:1011B0009387870C81E67D5798C3828018435847F0
:1011C0001843DDBFEFF20FA437090020B707002056
:1011D0009304890A83A9870D2A849C408840411181
:1011E000A382070411052EC60D367D579307890A81
:1011F000B245631AE40285C9938781F09440D843CD
:1012000098C610479440D0C694401047910654C2E7
:101210009440910614C798405CCB9843050798C347
:1012200041016FF06FA198434E9440C3637A34013B
:10123000370700200325070B8C4391054534CDB7B4
:10124000370700200325C70A8C439105413CB707A7
:1012500000209387870C9843E374E4FC80C3C9B7EC
:10126000EFF24F9A01119DE389679387078073908E
:101270000730373600003735000013060634930573
:10128000A02413058530EF00B06101A042846314EF
:10129000080289679387078073900730373600000C
:1012A00037350000130606349305B0241305853046
:1012B000EF00105F01A0BE84930780043ECEBA8980
:1012C00072476304F702896793870780739007303A
:1012D00037360000373500001306063493053025F5
:1012E00013058530EF00D05B01A0F2472328980258
:1012F000230A0802B94763F4370389679387078095
:101300007390073037360000373500001306063477
:101310009305703913058530EF00905801A0130A2A
:10132000480023263803232C3803232E08022AC41E
:101330005285328936C6EFF01F9A13058401EFF00B
:101340009F99B24613152900A2453D4771153307F1
:101350003741269518CC368600C840D023000404B7
:10136000A300040423010404A301040423020404CD
:10137000A30204044199EFE0BFF808C0EFF0FF8E2C
:10138000B70700209387470B9843B7040020050751
:1013900098C31387840A18439384840A138901DA53
:1013A0006317070C80C098438547631CF704938933
:1013B00001DA930AC9124E85D109EFF09F90E39CA0
:1013C0003AFF938AC1EC1385C1ECEFF09F8F9389AC
:1013D00001EE138501EEEFF0DF8E138541EFEFF0A4
:1013E0005F8E1385C1F1EFF0DF8D138581F0EFF093
:1013F0005F8DB707002023A6570BB707002023A84F
:10140000370BB70700209387070C9843050798C34D
:10141000370700201307470C5C54144363F3F600AE
:101420001CC35147B387E702CA97D843144718C46F
:1014300054C4144723A246012324470198435CC89F
:10144000050798C3EFF0DF83B707002083A7470D98
:1014500099CB9C40D8575C546377F700B7E700E01E
:10146000116723A0E720228505616FE0FFFCB70725
:10147000002083A7470DD1F79C40D8575C54E3E286
:10148000E7F880C0BDBFEFE29FF9411170002C006A
:10149000480002C202C475311248A2473246B7352D
:1014A0000000371500000147814693854535130537
:1014B000A5167D3315C9EF00701D8547631BF50226
:1014C00089679387078073900730B70700207D579F
:1014D00023A4E70CB707002023AAA70CB707002016
:1014E00023AC070CEFF0CFE783A7C18041016FE089
:1014F0005FF5FD57E31AF5FE8967938707807390C0
:10150000073037360000856537350000130606348E
:101510009385058413058530EF00903801A0B70747
:1015200000209387C70B9843050798C38280B707AD
:10153000002003A5870D8280B707002083A7C70B73
:1015400063960718EFE2BFEDB70700209387870D7A
:101550008043050480C339E8B70700209387C70A92
:101560009843184305C789679387078073900730AE
:10157000373600008565373500001306063493853D
:1015800075AC13058530EF00B03101A0370700209E
:101590001307070B9443104390C3B707002014C3ED
:1015A0009387C70C9843050798C3DD3E3706002094
:1015B0009307860C9C43B70500201306860C1387FF
:1015C00001DA9385850A01456375F4029C41D14691
:1015D000DC57B387D7023E971843854763F3E7008C
:1015E0000545B707002083A7C70D91C305456FE0E8
:1015F0005FE5370E0020B70E0020514F9307CE0A4B
:101600009443944281E6FD571CC2C9B79C43DC4712
:10161000DC47D4436374D40014C24DBF83A8870051
:1016200003A8C700D44B1383470023A40801232237
:10163000180183A846006394680023A2060103A84A
:10164000060023AA07007D1823A00601945795CA17
:1016500003A8C70183A8070283AF4600232418010B
:1016600083A8070223A208011388870163940F014E
:1016700023A2160103A8060023A407027D1823A0B5
:10168000060193864E0C03A8C70283A8060063F4E4
:10169000080123A00601B306E803BA9683A8460012
:1016A00083AF880023A4170123A6F70183AF880026
:1016B00023A26F0023A46800D4CB9C4285079CC260
:1016C0009C41DC57E36CF8F205450DBFB7070020DD
:1016D0009387070D98430145050798C38280EFE281
:1016E0007FD2370400201304C40B1C40411185E74E
:1016F00089679387078073900730373600008565C8
:1017000037350000130606349385358B1305853075
:10171000EF00101901A0EFF04FD51C40FD171CC0C1
:101720001C4089CB01452AC6EFF08FD532454101D7
:101730006FE09FD0B707002083A7470BE5D781470D
:10174000938641EF370F0020138501DAD148370324
:101750000020370E0020854E59A8DC46DC47CC4FD0
:101760009053985790C503A807022322B800032876
:101770004700938587016313B80050C3104323A427
:1017800007027D1610C38C47D047D84B13884700FB
:1017900090C54CC24C436393050150C3104323AA28
:1017A00007007D1610C313074F0CD0570C4363F38B
:1017B000C50010C3330716032A974C4383AF850037
:1017C0008CC723A6F70183AF850023A20F0123A4B2
:1017D00005010C43D8CB85050CC31307830A1843B6
:1017E00058576366E6001307CE0D2320D7019842B1
:1017F0002DF799C3EFF0DF9AB70700201387070D85
:1018000004431384070D91CC3709002085492D33FB
:1018100009C59307C90D23A03701FD14EDF8232056
:101820000400B707002083A7C70DE38D07EEB7E7D5
:1018300000E0116723A0E7200545F5B519E5B7E7F6
:1018400000E0116723A0E7208280EFE25FBDB707C9
:10185000002083A7C70B41119DC389679387078029
:101860007390073037360000373500001306063412
:101870009305905413058530EF00900201A02AC60D
:10188000793932458145EFF0FF93913D11E5B7E796
:1018900000E0116723A0E72041016FE09FBAB7077E
:1018A000002003A7C70BB70700209387C70D01C708
:1018B000054798C3828023A00700B707002013873D
:1018C000470C18431386470C938701DA5148B30637
:1018D0000703B385D700884115C5C841A106BE9648
:1018E0004841C8C16314D5005441D4C1D146B306A0
:1018F000D702B697DC43D447B707002023A4D70A02
:1019000018C2828015E7EFE29FB18967938707804D
:1019100073900730373600008565373500001306B1
:101920000634938525C013058530EF00607701A04C
:101930007D1771BFEFE2BFAE05E58967938707802A
:101940007390073037360000856537350000130681
:1019500006349385C5C113058530EF00607401A07E
:10196000B70700202E8483A5870AE105EFF00FB7A3
:1019700085452285EFF01F856FE0BFACEFE23FAAFF
:101980002A8705E589679387078073900730373684
:10199000000085653735000013060634938525C59C
:1019A00013058530EF00C06F01A0B70700209387B3
:1019B000870A54432E858C4303A88600D4CD8C43DC
:1019C00023A0050303A807008C46610823A2050194
:1019D00003A807009C43610823A4060198D71C4371
:1019E00085071CC311C27D55B285EFF0AFFD6FE0D6
:1019F0005FA55C45DC478DE7EFE27FA289679387AF
:101A00000780739007303736000085653735000052
:101A100013060634938525C813058530512501A08A
:101A2000D04F945398579385870114C6D0C2504322
:101A30006313B60054C3144323A40702FD1614C352
:101A4000370700200327C70BD45735EB8C47D04707
:101A5000D84B90C5D04748434CC293854700631389
:101A6000B50050C3104323AA07007D1610C33707E3
:101A700000201307470C10436373D60014C351476B
:101A80003386E602138701DA32975043084690C73F
:101A9000C8C708464CC10CC6D8CB1C4301458507B6
:101AA0001CC3B707002083A7870ADC5763F8D70059
:101AB000B7070020054723AEE70C05458280138752
:101AC00041EF50430846D0CF88D308464CC10CC6DE
:101AD00098D7E1B7B707002083A7C70C1CC1B70789
:101AE000002083A7870D5CC18280EFE25F934111E4
:101AF0001DE18967938707807390073037360000B0
:101B0000856537350000130606349385D5CF130558
:101B10008530792301A09DE18967938707807390C1
:101B20000730373600008565373500001306063468
:101B30009385E5CF13058530A52301A02EC62AC4C1
:101B4000EFF0AF9237070020B70700201307870A8E
:101B500083A6870D1C432245B24583C7570499CB02
:101B60001C43A38207040544EFF08F9122854101B5
:101B70006FE03F8D9C417D570144E387E7FE3706C8
:101B800000200326C60C0328050058416307C8003F
:101B900063E5E60023A00500F9B73386E640E37B62
:101BA000F6FE958FBA979CC13537014475BFB707CC
:101BB0000020054723AEE70C8280B707002083A7EB
:101BC000470D054581CBB707002003A5C70B13358B
:101BD000150006058280EFE29F8437040020EFF0B5
:101BE000CF881304C40E1C40B1E7138901F7138595
:101BF00001F7EFF00F8D938441F8138541F8EFF072
:101C00004F8CB707002023A0270F0147B7070020FC
:101C1000938681F9138601F3C145114523A2970EDE
:101C2000EFF06FA708C019C5B735000093850538D8
:101C3000EFF04FC5EFF0CF846FE0BF80EFE22FFEF3
:101C40004CC108C9AA876362B602184D158E0545B6
:101C5000637BE60093854700B707002003A5470E86
:101C6000EFF0CF8701456FE0CFFD6375D6000545E6
:101C7000E3FBD5FE93854700B707002003A5070EB9
:101C8000C5B7EFE2CFF92A84AE8432890C4CA68620
:101C90004A86A69522855D3719E16FE08FFA1C4CC4
:101CA0002285BE941C508297D5B7EFE24FF7B70755
:101CB000002083A7070E4111AA84DC472EC6C04727
:101CC00013054400EFF06F8483474402324613F754
:101CD000470011CBA68522856D371C50228582973F
:101CE00041016FE00FF6F99B2302F402FDB7EFE22A
:101CF0000FF3370400209306040E98421C4391EB27
:101D0000B70700209387470E904398C390C26FE0B7
:101D10004FF35C47FD558843493FF1BFEFE2AFED1C
:101D20000D694111B70A0020B7090020370B0020C8
:101D3000B70B00201309C93583A70A0E984329CB96
:101D4000DC47814C03AC0700EFF06FFDEFF02FFE96
:101D500083A7890E2A849384890E130ACB0E636CA1
:101D6000F50288C0638F0C0283A74B0E9043133695
:101D7000160003250A00B3058C40EFF02FB7EFF0F3
:101D80001F9611EDB7E700E0116723A0E72001A837
:101D9000854C014C55BFA13F80C0EFF05F94214CB2
:101DA00005A00146E36785FDEFF07F93A28562857C
:101DB000ED3DF5B79247B2458297824763DD070054
:101DC00003250A0001468A85EFF04F9735D58247F3
:101DD0002245E3C107FE22445C4885E7EFF02FF57A
:101DE0009C40AA8C6373F5001937824723A09401A5
:101DF000FD17E367FCFC8A07CA97984383474402B0
:101E0000028713054400EFE05FF0C9BF0C4C924617
:101E100093E717002302F4026686B6952285393DC2
:101E200045D18347440213F7470019CB1C4C924518
:101E300066862285BE95B1351C502285829749B7AA
:101E4000F99B2302F402CDBF924593E717002302CA
:101E5000F4020CCC95E18967938707807390073073
:101E60003736000037350000130686389305903565
:101E700013058530352401A0E6866686E695228521
:101E8000753B3DBFF99B2302F4021DBFEFE22FD942
:101E900041119133B707002083A7C70E85CF70008B
:101EA0002C00480002C202C4EFF0EFAAA247124879
:101EB0003246B73500003725000039478146938503
:101EC000053A1305C5D1EFF0AFB9B707002023A835
:101ED000A70E15E18967938707807390073037361F
:101EE000000037350000130686389305901113055E
:101EF00085307D2201A0054541016FE08FD4B707F1
:101F0000002083A7070837177A0013070720B3D7E5
:101F1000E7023707002093F7F70F230BF70E13079D
:101F2000803EB387E70237070020231AF70E82802E
:101F3000EFE2EFCE2A841165011185451105EFE02E
:101F40003FB1930700207C82371501408D473EC486
:101F50004C00E147130505803EC6EFE05F9022C8C4
:101F600037440140B70708000C08130504803ECC35
:101F700002CA231E0100EFE09FAF854513050480D0
:101F8000EFE0BFB705616FE0CFCBEFE2AFC7B7447B
:101F90000140AE8932890144938404806345240161
:101FA0004A856FE06FC9930500042685EFE0DFB630
:101FB0007DD9B38789008385070026850504C2057E
:101FC000C181EFE0FFB4D9BF138701811C43938621
:101FD00041FE3E95636BD500B72600209386060030
:101FE00063E5A60008C33E858280FD57EDBFB3C7F9
:101FF000A5008D8B3307C50081E78D4763EDC700D2
:10200000AA87637EE508942185078505A38FD7FEFF
:10201000E3EBE7FE828093763500AA8789CA942194
:1020200085078505A38FD7FE93F63700C5BF937646
:10203000C7FF138606FE63F0C70683A3050083A2CD
:10204000450083AF850003AFC50083AE050103AE35
:10205000450103A3850183A8C5019385450223A0FB
:10206000770003A8C5FF23A2570023A4F70123A6E6
:10207000E70123A8D70123AAC70123AC670023AE39
:1020800017019387470223AE07FF75B79041910769
:10209000910523AEC7FEE3EBD7FEE3E6E7F68280C9
:1020A00039713EDA2ED232D436D63AD842DC46DE08
:1020B0009387418122CC804326CA06CEAA8409C4D4
:1020C0001C4C99E32285ED290C4454102686228568
:1020D00036C6EF00F013F2406244D24421618280A0
:1020E000011126CA4AC806CE22CC4EC652C4AA84C2
:1020F0002E8901C51C4D91E3E1219C4C804499E35C
:1021000026857D29971700009387472C631BF402CF
:10211000C0405E24A18BB1C71C48A1C7FD59294A04
:102120001C4483450900FD17B1E91CC463DD0706A3
:102130002286A94526856120FD576308F5022945B9
:1021400035A0971700009387672A6314F400804432
:10215000C9B79717000093876725E31CF4FAC044BA
:102160004DBFA2852685112A55D97D55F24062447E
:10217000D2444249B249224A056182801CC4050901
:1021800063D70700184C63CAE700638845011C4009
:102190001387170018C08CA361B7228626850520F7
:1021A000E31035F9D9B71C401387170018C0294729
:1021B00098A371B793874181AA85884315B7011108
:1021C00022CC26CA4AC806CE4EC6AA842E8932849C
:1021D00001C51C4D91E3ED26971700009387071F5B
:1021E0006317F406C0401C4C1CC45E24A18BC1C301
:1021F0001C48B5CF1C4808409379F90F1379F90FA3
:102200001D8D5C486346F500A2852685692C25E571
:102210001C440505FD171CC41C401387170018C07B
:10222000238037015C486388A7005E24858B81CBBF
:10223000A9476316F900A2852685B5240DEDF24065
:1022400062444A85D2444249B24905618280971767
:1022500000009387A7196314F400804469B79717A7
:1022600000009387A714E310F4F8C044ADBFA28523
:102270002685212041D17D59D9B7411193874181CC
:1022800026C2844322C44AC006C62A892E8489C431
:102290009C4C99E326852D269717000093870713FA
:1022A000631BF402C0400317C40093170701C183E6
:1022B00093F68700ADEA93F6070195EEA547232034
:1022C000F900136707045AA47D55B2402244924492
:1022D00002494101828097170000938727116314F8
:1022E000F4008044C9B7971700009387270CE31CBC
:1022F000F4FAC0444DBF918B9DC34C5889C99307D4
:1023000044046384F5004A853123232A04025E24B1
:102310002322040093F7B7FD5EA41C481CC05E2472
:1023200093E787005EA41C4899EB5E241307002006
:1023300093F707286385E700A2854A85A1215E24DB
:1023400013F717001DC35C4823240400B307F040B3
:102350001CCC1C480145B5FB8317C40013F70708C4
:102360002DD793E707045EA485B7898B014791E3D6
:10237000584818C4F9BFDE25011122CC26CA06CE62
:102380004AC84EC613F78700AA842E8479EBD84139
:10239000634DE000B841634AE0000145F240624409
:1023A000D2444249B2490561828058547DD703A97D
:1023B00004009396370123A0040063DB06067048EF
:1023C0005E24918B99C75C401D8E5C5899C33C403C
:1023D0001D8E5C540C50814626858297FD575A24E9
:1023E000631DF5009440F54763E8D706B707402022
:1023F0008507B3D7D700858BA5C31C4823220400CB
:102400001CC09317370163D80700FD576314F5000C
:102410009C4091E368C84C5823A02401BDDD93077C
:1024200044046384F5002685F526232A0402B5B703
:102430000C500146854626850297FD572A86E311F2
:10244000F5F89C40B5DF75476385E700594763930E
:10245000E70423A0240191B7136707045AA47D550C
:1024600035BF83A90501E38A09F203A905008D8B15
:1024700023A0350133093941014791E3D84918C4F4
:10248000E35D20F11C540C50CA864E862685829747
:102490006347A0005E2493E707045EA4C9B7AA9926
:1024A0003309A940F1BF9C49B9CF011122CC06CE16
:1024B0002A8411C51C4D81E72EC61922B2459717F3
:1024C00000009387A7F0639BF5004C408397C500FD
:1024D00095C722856244F240056171BD97170000DF
:1024E0009387C7F06394F5000C44CDB797170000AD
:1024F0009387C7EBE39CF5FC4C44C9BFF2406244B0
:1025000001450561828001458280411122C406C6D1
:102510002A844EA572A5232005002322050023242A
:1025200005002322050623280500232A0500232C65
:102530000500214681451305C505EFD05FF19717CA
:102540000000938707B35CD097170000938727B5E7
:102550001CD497170000938707B95CD49717000025
:10256000938767BB00D01CD8B240224441018280CF
:1025700097050000938565F3A9A2411126C21306B1
:1025800080069384F5FFB384C4024AC02E8922C416
:1025900006C6938544073D262A8401CD23200500E5
:1025A00023222501310508C4138684068145EFD016
:1025B0001FEA2285B24022449244024941018280AE
:1025C0001C4DADE3411106C622C497070000938756
:1025D00067FA1CD59387C1819C43232405042326D5
:1025E0000504232805046314F50085471CCD2A84BF
:1025F0001D2848C02285052808C422852D2048C4EE
:10260000484001469145113708440546A545F53D2A
:1026100048440946C945D53D85471CCCB2402244B3
:1026200041018280828041119387C18126C2844307
:102630004AC006C69C4C22C42A8999E3268549379C
:10264000938484048044DC40FD1763D607009C40DB
:10265000B9CF8440C5BF0317C40039E7C1778507E8
:102660002322040623200400232204002324040040
:102670005CC423280400232A0400232C04002146E0
:1026800081451305C405EFD09FDC232A0402232CC7
:10269000040223240404232604042285B240224495
:1026A00092440249410182801304840671BF91451E
:1026B0004A85E13588C051FDB1472320F900014426
:1026C000E9BF797122D44AD052CC56CA5AC85EC6E4
:1026D00006D626D24ECE2A8AAE8A13048504014934
:1026E000054BFD5B09ECB25022544A8592540259C5
:1026F000F249624AD24A424BB24B4561828004445D
:1027000083294400FD1963D409000040E1BFDE24A1
:10271000637BFB008397E40063877701A68552857E
:10272000829A3369A90093848406E9BF1971A6DAF5
:10273000AE848395E500A2DC86DE328463DB05008F
:10274000DE2423A0060093F7070885E793070040DF
:102750001DA0300836C6EF009021B246E34205FEC8
:102760007247BD67F98F7977BA9793B717009CC204
:10277000F1BF930700041CC0F6506654D6540145BF
:1027800009618280DE25011122CC06CE26CA4AC804
:10279000898B2E8489CF930774041CC01CC885477D
:1027A0005CC8F2406244D2444249056182807400B0
:1027B0003000AA84A53FA2452A892685212219E94D
:1027C0008317C40013F7072069FFF19B93E72700E5
:1027D0005EA4D1B7970700009387C7D99CD45E2425
:1027E00008C008C893E707085EA4A2475CC8B247C0
:1027F00081CF8315E4002685EF00101A11C55E24F1
:10280000F19B93E717005EA45E243369F900231659
:10281000240141BFDDC583A7C5FF411122C406C6FF
:1028200026C21384C5FF63D307003E94AA84EF0039
:10283000701D97E7FF1F9387678C9C4391EF2322BE
:10284000040097E7FF1F23AB878A2244B240268506
:10285000924441016F00301B637EF4001440330743
:10286000D4006396E7009843DC43369718C05CC0F9
:10287000C9BFBA87D84319C3E37DE4FE94433386C6
:10288000D700631F86001040B29694C33386D700EA
:10289000E31DC7FA10435843B29694C3D8C375B723
:1028A0006375C400B1479CC04DB71040B306C40067
:1028B0006316D70014435843B29614C058C0C0C31F
:1028C00069B78280011126CA93843500F19806CE3B
:1028D00022CC4AC84EC6A104B14763F9F404B144FE
:1028E00063E8B4042A89EF00F01197E7FF1F93878C
:1028F000E78098433A8439E497E7FF1F938747803E
:102900009C4381EB81454A85352F97D7FF1F23A92B
:10291000A77EA6854A853D27FD59631B3507B1472C
:102920002320F9004A85EF00100E29A0E3DA04FA0B
:10293000B1471CC10145F2406244D2444249B24908
:10294000056182801C40858F63C10704AD4663F634
:10295000F6001CC03E9404C001A85C4063158702C9
:1029600017D7FF1F232CF7784A85EF00D0091305EE
:10297000B4009307440061993307F5404DDF3A9462
:10298000898F1CC04DBF5CC3C5B722874040A5B727
:10299000130435007198E30085FCB305A4404A8513
:1029A0005525E31A35FBA5BF1C46FD171CC663DA87
:1029B0000700184E63C5E700A9476394F5006FF060
:1029C0001F801C422E851387170018C28CA382809B
:1029D000011122CC26CA4AC84EC652C406CE2A8944
:1029E000AE893284B304D6007D5A63149400014545
:1029F00001A80C204E864A85453F0504E31745FF94
:102A0000F2406244D2444249B249224A056182807E
:102A1000357122CD26CB4AC94EC706CF52C556C303
:102A20005AC1DEDEE2DCE6DAAA89AE843289368477
:102A300009C51C4D99E3EFF0BFB8971700009387C5
:102A4000E7986397F40C83A44900DE24A18BFDC3AF
:102A50009C48EDC393070002A304F102930700030F
:102A600002D22305F10222C6930B5002971A0000EE
:102A7000938ACA99054C294B4A841C2099C3639EAA
:102A8000770DB30C2441638D0C00E6864A86A6853B
:102A90004E853D3FFD57630FF51C9256E69636D2A4
:102AA0001C206389071CFD571309140002C802CEBD
:102AB0003ECA02CCA309010482D48345090015460D
:102AC00056852D2713041900C24751E913F7070152
:102AD00009C713070002A309E10413F7870009C718
:102AE0001307B002A309E104834609001307A002FB
:102AF000638FE606F2474A848146254618209305EF
:102B00001400130707FD6377E60AB5CA3ECE85A811
:102B1000971700009387878D6395F40083A489003D
:102B20002DB79717000093876788E390F4F283A48A
:102B3000C90021BFA6854E85EFF02FF401DD7D553C
:102B4000FA406A44DA444A49BA492A4A9A4A0A4B3C
:102B5000F65B665CD65C0D618280050439BF330587
:102B600055413315AC00C98F3EC82289B9B73247E9
:102B700093064700184336C6634707023ACE18202B
:102B80009307E002631DF70418309307A002631B4C
:102B9000F702B2470904138747009C433AC663C152
:102BA00007023ECA2DA83307E04093E727003ACE3C
:102BB0003EC8F1B7B387670385462E84BA973DBFF9
:102BC000FD57C5B7050402CA81468147254618202E
:102BD00093051400130707FD6374E606F9F20C2051
:102BE0000D46171500001305E582092511CD97172D
:102BF0000000938727821D8D93070004B397A700D9
:102C0000424505045D8D2AC80C20194617150000A1
:102C100013058580130914002304B102C12B35C1AB
:102C200097D7FFFF9387073E95E74247B247137751
:102C3000071009CF91073EC69257D2973ED22DBDBD
:102C4000B387670385462E84BA9751B79D07E19BEA
:102C5000A107D5B77800970600009386A6D72686E9
:102C60000C084E8597000000E7000000FD572A8AF7
:102C7000E314F5FCDE2493F70704E39207EC125506
:102C8000C1B57800970600009386C6D426860C0846
:102C90004E85012AE1BF797156CA9C49BA8A984586
:102CA00022D426D24ECE52CC06D64AD05AC85EC6C0
:102CB000AA892E84B284368A63D3E700BA879CC07F
:102CC0000347340419C385079CC01C4093F70702CF
:102CD00081C79C4089079CC00329040013796900BF
:102CE000631A0900130B9401FD5B5C449840998FB3
:102CF000634CF9041C408346340493F70702B3364F
:102D0000D000A5EB13063404D2854E85829AFD5778
:102D10006303F5041C4011469840998B5444814448
:102D20006397C700B384E64063D3040081441C4426
:102D300018486354F700998FBE94014969047D5B7C
:102D400063982405014509A885465A86D2854E8593
:102D5000829A631E75017D55B250225492540259D5
:102D6000F249624AD24A424BB24B45618280050920
:102D7000ADBF3307D40013060003A301C704034704
:102D8000540493871600A2978906A381E7049DBF88
:102D900085462286D2854E85829AE30E65FB05091B
:102DA00045B7797122D426D24AD04ECE06D652CC1F
:102DB00056CA5AC8B689942D930790063289AA84B8
:102DC0002E8413863504638DF60263E2D7069307DB
:102DD00080056386F61863EDD700638E062093079F
:102DE0003004638EF60A930A24042301D404C9A094
:102DF000930730066385F60A93074006E395F6FECF
:102E00001C40084393F6070893054500C5C61C41BE
:102E10000CC363D807001307D002B307F040A30127
:102E2000E404970600009386A65F294765A89307E8
:102E300000076382F61663E5D7029307E00663890D
:102E4000F6189307F006E390F6FA0C401C4313F8CB
:102E50000508138547006307080608C39C4385A837
:102E600093075007E383F6FE930780076389F61202
:102E700093073007E399F6F61C43D04181459386CA
:102E8000470014C383AA070056858D2601C5330564
:102E9000554148C05C401CC8A301040461A81C4300
:102EA000930A2404938647009C4314C32301F4042B
:102EB0008547D5B793F607041C410CC3B9DAC2079E
:102EC000C18781BF93F5050408C3C9D99E231307A1
:102ED000F0066387E60E970600009386665429473E
:102EE000A30104044C400CC463C5050008406D995F
:102EF00008C099E3B28A89CDB28AB3F5E702FD1A18
:102F0000B6958C212380BA00B3D5E70263F0E70CB5
:102F1000A147631EF7001C40858B91CB58401C488D
:102F200063C7E70093070003A38FFAFEFD1A330679
:102F3000564110C84E87CA867000A2852685EFF0DC
:102F40009FD57D5A631D450B7D55B2502254925436
:102F50000259F249624AD24A424B45618280A382B9
:102F6000D504970600009386A64B0C40084313F83F
:102F700005081C411105630D080208C313F715006D
:102F800001C793E505020CC04147B9FB0C4093F51E
:102F9000F5FD0CC0B1B79C4193E707029CC19307B4
:102FA0008007A302F404970600009386A64875BF25
:102FB00013F8050408C3E30308FCC207C1837DBFFF
:102FC000970600009386C645214719BFAE8735B7DF
:102FD00094411C43CC4913F8060813854700630647
:102FE000080008C39C438CC339A008C393F60604A9
:102FF0009C43F5DA8EA323280400B28A25BF144827
:103000005686CA8526858299E30045F51C40898B42
:103010008DE7B2474844E35AF5F23E853DB7854611
:103020005686CA8526858299E30065F3050A5C44C5
:103030003247998FE345FAFEE9BF014A930A9401AA
:103040007D5BF5B7411122C42A842E8523A001FEA1
:1030500006C6EFE07FF7FD576317F500938701FE83
:103060009C4391C31CC0B240224441018280411163
:1030700022C42E848395E50006C6792263490500A3
:103080007C48AA977CC8B2402244410182805E24D9
:103090007D777D17F98F5EA4FDB7DE25011122CC67
:1030A00026CA4AC84EC606CE93F70710AA842E84B5
:1030B0003289B68991C78395E50089460146092280
:1030C0005E247D777D17F98F5EA48315E40062444A
:1030D000F240CE864A86B24942492685D2440561ED
:1030E00025A8411122C42E848395E50006C6C9286F
:1030F000FD575A24631AF500FD77FD17F98F5EA47A
:10310000B2402244410182808567D98F5EA468C89D
:10311000C5BF8395E50005A8411122C42A842E85E8
:10312000B285368623A001FE06C6EFE01FE6FD57F6
:103130006317F500938701FE9C4391C31CC0B24006
:10314000224441018280411122C42A842E8523A079
:1031500001FE06C6C520FD576317F500938701FEE3
:103160009C4391C31CC0B240224441018280411162
:1031700022C42A842E85B28523A001FE06C6C9205A
:10318000FD576317F500938701FE9C4391C31CC054
:10319000B240224441018280411122C42A842E85FA
:1031A00023A001FE06C65D20FD576317F500938737
:1031B00001FE9C4391C31CC0B24022444101828065
:1031C000411122C42A842E85B285368623A001FEB1
:1031D00006C65920FD576317F500938701FE9C43EF
:1031E00091C31CC0B24022444101828093F5F50F87
:1031F0002A966314C500014582801C21E38EB7FE28
:103200000505C5BF82808280411122C42A842E8593
:10321000B285368623A001FE06C6A920FD57631796
:10322000F500938701FE9C4391C31CC0B240224429
:10323000410182809307800523A0F1FE7D558280A5
:103240009307800523A0F1FE7D55828093078005BA
:1032500023A0F1FE014582809307800523A0F1FEA3
:103260007D5582809307800523A0F1FE7D558280E5
:1032700053797374656D436C6B3A25640D0A0000D5
:103280004368697049443A253038780D0A000000D7
:103290005631302E342E36004672656552544F53E7
:1032A000204B65726E656C2056657273696F6E3A5D
:1032B00025730D0A000000007461736B320000007A
:1032C0007461736B3100000073686F756C646E27F6
:1032D000742072756E20617420686572652121000A
:1032E0002E2E2F4672656552544F532F706F727495
:1032F00061626C652F4743432F524953432D562F2C
:10330000706F72742E630000657272206174206C9D
:10331000696E65202564206F662066696C652022D1
:103320002573222E200D0A20000000002E2E2F468D
:1033300072656552544F532F71756575652E630024
:103340002E2E2F4672656552544F532F7461736B46
:10335000732E630049444C45000000000C1E000021
:103360000C1E0000841E0000481E0000841E000089
:103370000C1E00000C1E0000841E0000481E0000F1
:10338000546D7251000000002E2E2F46726565525A
:10339000544F532F74696D6572732E6300000000E3
:1033A000546D72205376630000000000000000009E
:1033B000000000000000000000000000000000000D
:1033C00000000000000000000000000000000000FD
:1033D00000000000000000000000000000000000ED
:1033E00000000000000000000000000000000000DD
:1033F00000000000000000000000000000000000CD
:103400000000000000000000232D302B20000000F1
:10341000686C4C00656667454647000030313233C2
:1034200034353637383941424344454600000000C0
:10343000303132333435363738396162636465662A
:043440000000000088
:103444000000000000000000010203040607080950
:103454000000000001020304010203040607080936
:1034640000000000C8330000E8330000A833000067
:103474000000000000000000000000000000000048
:103484000000000000000000000000000000000038
:103494000000000000000000000000000000000028
:1034A4000000000000000000000000000000000018
:1034B4000000000000000000000000000000000008
:1034C40000D8B80502040608AAAAAAAA0E00000099
:1034D4006408002020000020002800202000002094
:00000001FF
